{
  "_format": "hh-sol-artifact-1",
  "contractName": "CertificateRegistry",
  "sourceName": "contracts/CertificateRegistry.sol",
  "abi": [
    {
      "anonymous": false,
      "inputs": [
        {
          "indexed": true,
          "internalType": "uint256",
          "name": "certificateId",
          "type": "uint256"
        },
        {
          "indexed": true,
          "internalType": "address",
          "name": "institution",
          "type": "address"
        },
        {
          "indexed": true,
          "internalType": "address",
          "name": "recipient",
          "type": "address"
        },
        {
          "indexed": false,
          "internalType": "string",
          "name": "certificateHash",
          "type": "string"
        }
      ],
      "name": "CertificateIssued",
      "type": "event"
    },
    {
      "anonymous": false,
      "inputs": [
        {
          "indexed": true,
          "internalType": "uint256",
          "name": "certificateId",
          "type": "uint256"
        },
        {
          "indexed": true,
          "internalType": "address",
          "name": "verifier",
          "type": "address"
        }
      ],
      "name": "CertificateVerified",
      "type": "event"
    },
    {
      "anonymous": false,
      "inputs": [
        {
          "indexed": true,
          "internalType": "address",
          "name": "institution",
          "type": "address"
        },
        {
          "indexed": false,
          "internalType": "string",
          "name": "name",
          "type": "string"
        }
      ],
      "name": "InstitutionRegistered",
      "type": "event"
    },
    {
      "anonymous": false,
      "inputs": [
        {
          "indexed": true,
          "internalType": "address",
          "name": "institution",
          "type": "address"
        },
        {
          "indexed": false,
          "internalType": "bool",
          "name": "isActive",
          "type": "bool"
        }
      ],
      "name": "InstitutionStatusChanged",
      "type": "event"
    },
    {
      "anonymous": false,
      "inputs": [
        {
          "indexed": true,
          "internalType": "address",
          "name": "previousOwner",
          "type": "address"
        },
        {
          "indexed": true,
          "internalType": "address",
          "name": "newOwner",
          "type": "address"
        }
      ],
      "name": "OwnershipTransferred",
      "type": "event"
    },
    {
      "inputs": [
        {
          "internalType": "string",
          "name": "",
          "type": "string"
        }
      ],
      "name": "certificateHashToId",
      "outputs": [
        {
          "internalType": "uint256",
          "name": "",
          "type": "uint256"
        }
      ],
      "stateMutability": "view",
      "type": "function"
    },
    {
      "inputs": [
        {
          "internalType": "uint256",
          "name": "",
          "type": "uint256"
        }
      ],
      "name": "certificates",
      "outputs": [
        {
          "internalType": "uint256",
          "name": "id",
          "type": "uint256"
        },
        {
          "internalType": "address",
          "name": "institution",
          "type": "address"
        },
        {
          "internalType": "address",
          "name": "recipient",
          "type": "address"
        },
        {
          "internalType": "string",
          "name": "certificateHash",
          "type": "string"
        },
        {
          "internalType": "string",
          "name": "metadataHash",
          "type": "string"
        },
        {
          "internalType": "uint256",
          "name": "issuedAt",
          "type": "uint256"
        },
        {
          "internalType": "bool",
          "name": "isValid",
          "type": "bool"
        },
        {
          "internalType": "string",
          "name": "certificateType",
          "type": "string"
        },
        {
          "internalType": "string",
          "name": "courseName",
          "type": "string"
        },
        {
          "internalType": "string",
          "name": "grade",
          "type": "string"
        }
      ],
      "stateMutability": "view",
      "type": "function"
    },
    {
      "inputs": [
        {
          "internalType": "address",
          "name": "_institution",
          "type": "address"
        }
      ],
      "name": "getInstitutionCertificates",
      "outputs": [
        {
          "internalType": "uint256[]",
          "name": "",
          "type": "uint256[]"
        }
      ],
      "stateMutability": "view",
      "type": "function"
    },
    {
      "inputs": [
        {
          "internalType": "address",
          "name": "_recipient",
          "type": "address"
        }
      ],
      "name": "getRecipientCertificates",
      "outputs": [
        {
          "internalType": "uint256[]",
          "name": "",
          "type": "uint256[]"
        }
      ],
      "stateMutability": "view",
      "type": "function"
    },
    {
      "inputs": [],
      "name": "getTotalCertificates",
      "outputs": [
        {
          "internalType": "uint256",
          "name": "",
          "type": "uint256"
        }
      ],
      "stateMutability": "view",
      "type": "function"
    },
    {
      "inputs": [
        {
          "internalType": "address",
          "name": "",
          "type": "address"
        },
        {
          "internalType": "uint256",
          "name": "",
          "type": "uint256"
        }
      ],
      "name": "institutionCertificates",
      "outputs": [
        {
          "internalType": "uint256",
          "name": "",
          "type": "uint256"
        }
      ],
      "stateMutability": "view",
      "type": "function"
    },
    {
      "inputs": [
        {
          "internalType": "address",
          "name": "",
          "type": "address"
        }
      ],
      "name": "institutions",
      "outputs": [
        {
          "internalType": "string",
          "name": "name",
          "type": "string"
        },
        {
          "internalType": "string",
          "name": "registrationNumber",
          "type": "string"
        },
        {
          "internalType": "bool",
          "name": "isActive",
          "type": "bool"
        },
        {
          "internalType": "bool",
          "name": "isRegistered",
          "type": "bool"
        },
        {
          "internalType": "uint256",
          "name": "registeredAt",
          "type": "uint256"
        }
      ],
      "stateMutability": "view",
      "type": "function"
    },
    {
      "inputs": [
        {
          "internalType": "address",
          "name": "_institution",
          "type": "address"
        }
      ],
      "name": "isValidInstitution",
      "outputs": [
        {
          "internalType": "bool",
          "name": "",
          "type": "bool"
        }
      ],
      "stateMutability": "view",
      "type": "function"
    },
    {
      "inputs": [
        {
          "internalType": "address",
          "name": "_recipient",
          "type": "address"
        },
        {
          "internalType": "string",
          "name": "_certificateHash",
          "type": "string"
        },
        {
          "internalType": "string",
          "name": "_metadataHash",
          "type": "string"
        },
        {
          "internalType": "string",
          "name": "_certificateType",
          "type": "string"
        },
        {
          "internalType": "string",
          "name": "_courseName",
          "type": "string"
        },
        {
          "internalType": "string",
          "name": "_grade",
          "type": "string"
        }
      ],
      "name": "issueCertificate",
      "outputs": [],
      "stateMutability": "nonpayable",
      "type": "function"
    },
    {
      "inputs": [],
      "name": "owner",
      "outputs": [
        {
          "internalType": "address",
          "name": "",
          "type": "address"
        }
      ],
      "stateMutability": "view",
      "type": "function"
    },
    {
      "inputs": [
        {
          "internalType": "address",
          "name": "",
          "type": "address"
        },
        {
          "internalType": "uint256",
          "name": "",
          "type": "uint256"
        }
      ],
      "name": "recipientCertificates",
      "outputs": [
        {
          "internalType": "uint256",
          "name": "",
          "type": "uint256"
        }
      ],
      "stateMutability": "view",
      "type": "function"
    },
    {
      "inputs": [
        {
          "internalType": "address",
          "name": "_institutionAddress",
          "type": "address"
        },
        {
          "internalType": "string",
          "name": "_name",
          "type": "string"
        },
        {
          "internalType": "string",
          "name": "_registrationNumber",
          "type": "string"
        }
      ],
      "name": "registerInstitution",
      "outputs": [],
      "stateMutability": "nonpayable",
      "type": "function"
    },
    {
      "inputs": [],
      "name": "renounceOwnership",
      "outputs": [],
      "stateMutability": "nonpayable",
      "type": "function"
    },
    {
      "inputs": [
        {
          "internalType": "uint256",
          "name": "_certificateId",
          "type": "uint256"
        }
      ],
      "name": "revokeCertificate",
      "outputs": [],
      "stateMutability": "nonpayable",
      "type": "function"
    },
    {
      "inputs": [
        {
          "internalType": "address",
          "name": "_institution",
          "type": "address"
        },
        {
          "internalType": "bool",
          "name": "_isActive",
          "type": "bool"
        }
      ],
      "name": "setInstitutionStatus",
      "outputs": [],
      "stateMutability": "nonpayable",
      "type": "function"
    },
    {
      "inputs": [
        {
          "internalType": "address",
          "name": "newOwner",
          "type": "address"
        }
      ],
      "name": "transferOwnership",
      "outputs": [],
      "stateMutability": "nonpayable",
      "type": "function"
    },
    {
      "inputs": [
        {
          "internalType": "uint256",
          "name": "_certificateId",
          "type": "uint256"
        }
      ],
      "name": "verifyCertificate",
      "outputs": [
        {
          "components": [
            {
              "internalType": "uint256",
              "name": "id",
              "type": "uint256"
            },
            {
              "internalType": "address",
              "name": "institution",
              "type": "address"
            },
            {
              "internalType": "address",
              "name": "recipient",
              "type": "address"
            },
            {
              "internalType": "string",
              "name": "certificateHash",
              "type": "string"
            },
            {
              "internalType": "string",
              "name": "metadataHash",
              "type": "string"
            },
            {
              "internalType": "uint256",
              "name": "issuedAt",
              "type": "uint256"
            },
            {
              "internalType": "bool",
              "name": "isValid",
              "type": "bool"
            },
            {
              "internalType": "string",
              "name": "certificateType",
              "type": "string"
            },
            {
              "internalType": "string",
              "name": "courseName",
              "type": "string"
            },
            {
              "internalType": "string",
              "name": "grade",
              "type": "string"
            }
          ],
          "internalType": "struct CertificateRegistry.Certificate",
          "name": "",
          "type": "tuple"
        }
      ],
      "stateMutability": "nonpayable",
      "type": "function"
    },
    {
      "inputs": [
        {
          "internalType": "string",
          "name": "_certificateHash",
          "type": "string"
        }
      ],
      "name": "verifyCertificateByHash",
      "outputs": [
        {
          "components": [
            {
              "internalType": "uint256",
              "name": "id",
              "type": "uint256"
            },
            {
              "internalType": "address",
              "name": "institution",
              "type": "address"
            },
            {
              "internalType": "address",
              "name": "recipient",
              "type": "address"
            },
            {
              "internalType": "string",
              "name": "certificateHash",
              "type": "string"
            },
            {
              "internalType": "string",
              "name": "metadataHash",
              "type": "string"
            },
            {
              "internalType": "uint256",
              "name": "issuedAt",
              "type": "uint256"
            },
            {
              "internalType": "bool",
              "name": "isValid",
              "type": "bool"
            },
            {
              "internalType": "string",
              "name": "certificateType",
              "type": "string"
            },
            {
              "internalType": "string",
              "name": "courseName",
              "type": "string"
            },
            {
              "internalType": "string",
              "name": "grade",
              "type": "string"
            }
          ],
          "internalType": "struct CertificateRegistry.Certificate",
          "name": "",
          "type": "tuple"
        }
      ],
      "stateMutability": "nonpayable",
      "type": "function"
    }
  ],
  "bytecode": "0x608060405234801561001057600080fd5b5061001a33610023565b60018055610073565b600080546001600160a01b038381166001600160a01b0319831681178455604051919092169283917f8be0079c531659141344cd1fd0a4f28419497f9722a3daafe3b4186f6b6457e09190a35050565b6121bb806100826000396000f3fe608060405234801561001057600080fd5b50600436106101155760003560e01c80637843bb79116100a2578063b43c7d1b11610071578063b43c7d1b14610259578063b66a2dc614610284578063b7716007146102a7578063de8c98fd146102ba578063f2fde38b146102cd57600080fd5b80637843bb79146101f25780638da5cb5b146101fa5780638dce31e514610215578063b2d9767f1461023557600080fd5b80632f183086116100e95780632f1830861461018857806351ab415f1461019b578063663b3e22146101ae578063715018a6146101d757806373ae3899146101df57600080fd5b8062bb97461461011a57806306f5497e146101405780631692a94214610155578063226acd4614610175575b600080fd5b61012d61012836600461188a565b6102e0565b6040519081526020015b60405180910390f35b61015361014e3660046118b6565b610311565b005b6101686101633660046118b6565b6104a3565b604051610137919061191f565b610153610183366004611b08565b61094d565b610153610196366004611b8c565b610ba4565b6101686101a9366004611bc5565b610c7e565b6101c16101bc3660046118b6565b610d5e565b6040516101379a99989796959493929190611c02565b610153611069565b61012d6101ed36600461188a565b61107d565b61012d611099565b6000546040516001600160a01b039091168152602001610137565b610228610223366004611ca6565b6110a9565b6040516101379190611cc3565b610248610243366004611ca6565b611115565b604051610137959493929190611d07565b61012d610267366004611bc5565b805160208183018101805160058252928201919093012091525481565b610297610292366004611ca6565b61125a565b6040519015158152602001610137565b6102286102b5366004611ca6565b6112ab565b6101536102c8366004611d4a565b611315565b6101536102db366004611ca6565b611682565b600760205281600052604060002081815481106102fc57600080fd5b90600052602060002001600091509150505481565b8060008111801561032457506002548111155b6103755760405162461bcd60e51b815260206004820152601a60248201527f436572746966696361746520646f6573206e6f7420657869737400000000000060448201526064015b60405180910390fd5b33600090815260036020526040902060020154610100900460ff1680156103ae57503360009081526003602052604090206002015460ff165b6103ca5760405162461bcd60e51b815260040161036c90611e2b565b600082815260046020526040902060018101546001600160a01b031633146104405760405162461bcd60e51b815260206004820152602360248201527f4f6e6c792069737375696e6720696e737469747574696f6e2063616e207265766044820152626f6b6560e81b606482015260840161036c565b600681015460ff166104945760405162461bcd60e51b815260206004820152601b60248201527f436572746966696361746520616c7265616479207265766f6b65640000000000604482015260640161036c565b600601805460ff191690555050565b6104ab6117fe565b816000811180156104be57506002548111155b61050a5760405162461bcd60e51b815260206004820152601a60248201527f436572746966696361746520646f6573206e6f74206578697374000000000000604482015260640161036c565b60008381526004602090815260408083208151610140810183528154815260018201546001600160a01b039081169482019490945260028201549093169183019190915260038101805460608401919061056390611e71565b80601f016020809104026020016040519081016040528092919081815260200182805461058f90611e71565b80156105dc5780601f106105b1576101008083540402835291602001916105dc565b820191906000526020600020905b8154815290600101906020018083116105bf57829003601f168201915b505050505081526020016004820180546105f590611e71565b80601f016020809104026020016040519081016040528092919081815260200182805461062190611e71565b801561066e5780601f106106435761010080835404028352916020019161066e565b820191906000526020600020905b81548152906001019060200180831161065157829003601f168201915b505050918352505060058201546020820152600682015460ff16151560408201526007820180546060909201916106a490611e71565b80601f01602080910402602001604051908101604052809291908181526020018280546106d090611e71565b801561071d5780601f106106f25761010080835404028352916020019161071d565b820191906000526020600020905b81548152906001019060200180831161070057829003601f168201915b5050505050815260200160088201805461073690611e71565b80601f016020809104026020016040519081016040528092919081815260200182805461076290611e71565b80156107af5780601f10610784576101008083540402835291602001916107af565b820191906000526020600020905b81548152906001019060200180831161079257829003601f168201915b505050505081526020016009820180546107c890611e71565b80601f01602080910402602001604051908101604052809291908181526020018280546107f490611e71565b80156108415780601f1061081657610100808354040283529160200191610841565b820191906000526020600020905b81548152906001019060200180831161082457829003601f168201915b50505050508152505090508060c0015161089d5760405162461bcd60e51b815260206004820152601860248201527f4365727469666963617465206973206e6f742076616c69640000000000000000604482015260640161036c565b6020808201516001600160a01b031660009081526003909152604090206002015460ff166109175760405162461bcd60e51b815260206004820152602160248201527f49737375696e6720696e737469747574696f6e206973206e6f742061637469766044820152606560f81b606482015260840161036c565b604051339085907fd7c96d6fc66839b1626cff5f8eccbacfa07b17981e577e09f16310f5fca240a890600090a391505b50919050565b6109556116fb565b6001600160a01b0383166109ab5760405162461bcd60e51b815260206004820152601b60248201527f496e76616c696420696e737469747574696f6e20616464726573730000000000604482015260640161036c565b6001600160a01b038316600090815260036020526040902060020154610100900460ff1615610a1c5760405162461bcd60e51b815260206004820152601e60248201527f496e737469747574696f6e20616c726561647920726567697374657265640000604482015260640161036c565b6000825111610a6d5760405162461bcd60e51b815260206004820152601960248201527f496e737469747574696f6e206e616d6520726571756972656400000000000000604482015260640161036c565b6000815111610abe5760405162461bcd60e51b815260206004820152601c60248201527f526567697374726174696f6e206e756d62657220726571756972656400000000604482015260640161036c565b6040805160a0810182528381526020808201849052600182840181905260608301524260808301526001600160a01b038616600090815260039091529190912081518190610b0c9082611ef0565b5060208201516001820190610b219082611ef0565b50604082810151600283018054606086015115156101000261ff00199315159390931661ffff1990911617919091179055608090920151600390910155516001600160a01b038416907f73a52c071d4a02996481449bf1ad04d8f24559a7ec51210c4ec5e43d3baee88190610b97908590611fb0565b60405180910390a2505050565b610bac6116fb565b6001600160a01b038216600090815260036020526040902060020154610100900460ff16610c1c5760405162461bcd60e51b815260206004820152601a60248201527f496e737469747574696f6e206e6f742072656769737465726564000000000000604482015260640161036c565b6001600160a01b038216600081815260036020908152604091829020600201805460ff191685151590811790915591519182527f0fadc7e86c3af145bbdd3ce051029cc14e95637a403cf79a8ad3ab177fff77c1910160405180910390a25050565b610c866117fe565b6000600583604051610c989190611fc3565b908152602001604051809103902054905060008111610cf15760405162461bcd60e51b815260206004820152601560248201527410d95c9d1a599a58d85d19481b9bdd08199bdd5b99605a1b604482015260640161036c565b604051630b4954a160e11b8152600481018290523090631692a942906024016000604051808303816000875af1158015610d2f573d6000803e3d6000fd5b505050506040513d6000823e601f3d908101601f19168201604052610d57919081019061203a565b9392505050565b600460205260009081526040902080546001820154600283015460038401805493946001600160a01b03938416949390921692610d9a90611e71565b80601f0160208091040260200160405190810160405280929190818152602001828054610dc690611e71565b8015610e135780601f10610de857610100808354040283529160200191610e13565b820191906000526020600020905b815481529060010190602001808311610df657829003601f168201915b505050505090806004018054610e2890611e71565b80601f0160208091040260200160405190810160405280929190818152602001828054610e5490611e71565b8015610ea15780601f10610e7657610100808354040283529160200191610ea1565b820191906000526020600020905b815481529060010190602001808311610e8457829003601f168201915b50505050600583015460068401546007850180549495929460ff909216935090610eca90611e71565b80601f0160208091040260200160405190810160405280929190818152602001828054610ef690611e71565b8015610f435780601f10610f1857610100808354040283529160200191610f43565b820191906000526020600020905b815481529060010190602001808311610f2657829003601f168201915b505050505090806008018054610f5890611e71565b80601f0160208091040260200160405190810160405280929190818152602001828054610f8490611e71565b8015610fd15780601f10610fa657610100808354040283529160200191610fd1565b820191906000526020600020905b815481529060010190602001808311610fb457829003601f168201915b505050505090806009018054610fe690611e71565b80601f016020809104026020016040519081016040528092919081815260200182805461101290611e71565b801561105f5780601f106110345761010080835404028352916020019161105f565b820191906000526020600020905b81548152906001019060200180831161104257829003601f168201915b505050505090508a565b6110716116fb565b61107b6000611755565b565b600660205281600052604060002081815481106102fc57600080fd5b60006110a460025490565b905090565b6001600160a01b03811660009081526007602090815260409182902080548351818402810184019094528084526060939283018282801561110957602002820191906000526020600020905b8154815260200190600101908083116110f5575b50505050509050919050565b60036020526000908152604090208054819061113090611e71565b80601f016020809104026020016040519081016040528092919081815260200182805461115c90611e71565b80156111a95780601f1061117e576101008083540402835291602001916111a9565b820191906000526020600020905b81548152906001019060200180831161118c57829003601f168201915b5050505050908060010180546111be90611e71565b80601f01602080910402602001604051908101604052809291908181526020018280546111ea90611e71565b80156112375780601f1061120c57610100808354040283529160200191611237565b820191906000526020600020905b81548152906001019060200180831161121a57829003601f168201915b505050506002830154600390930154919260ff8082169361010090920416915085565b6001600160a01b038116600090815260036020526040812060020154610100900460ff1680156112a557506001600160a01b03821660009081526003602052604090206002015460ff165b92915050565b6001600160a01b03811660009081526006602090815260409182902080548351818402810184019094528084526060939283018282801561110957602002820191906000526020600020908154815260200190600101908083116110f55750505050509050919050565b33600090815260036020526040902060020154610100900460ff16801561134e57503360009081526003602052604090206002015460ff165b61136a5760405162461bcd60e51b815260040161036c90611e2b565b6113726117a5565b6001600160a01b0386166113c85760405162461bcd60e51b815260206004820152601960248201527f496e76616c696420726563697069656e74206164647265737300000000000000604482015260640161036c565b60008551116114195760405162461bcd60e51b815260206004820152601960248201527f4365727469666963617465206861736820726571756972656400000000000000604482015260640161036c565b6005856040516114299190611fc3565b9081526020016040518091039020546000146114875760405162461bcd60e51b815260206004820152601f60248201527f4365727469666963617465206861736820616c72656164792065786973747300604482015260640161036c565b611495600280546001019055565b60006114a060025490565b60408051610140810182528281523360208083019182526001600160a01b038c8116848601908152606085018d8152608086018d90524260a0870152600160c0870181905260e087018d905261010087018c905261012087018b9052600089815260049095529690932085518155935195840180546001600160a01b031990811697841697909717905551600284018054909616911617909355915192935091600382019061154f9082611ef0565b50608082015160048201906115649082611ef0565b5060a0820151600582015560c082015160068201805460ff191691151591909117905560e0820151600782019061159b9082611ef0565b5061010082015160088201906115b19082611ef0565b5061012082015160098201906115c79082611ef0565b50905050806005876040516115dc9190611fc3565b908152604080519182900360209081018320939093556001600160a01b038a166000818152600685528281208054600181810183559183528683200187905533808352600787529382208054918201815582529490209093018490559083907f6f747fdac87b156ec553ed1d5b44a6d7f348858e9ae1bf353fd667d65605385790611668908b90611fb0565b60405180910390a45061167a60018055565b505050505050565b61168a6116fb565b6001600160a01b0381166116ef5760405162461bcd60e51b815260206004820152602660248201527f4f776e61626c653a206e6577206f776e657220697320746865207a65726f206160448201526564647265737360d01b606482015260840161036c565b6116f881611755565b50565b6000546001600160a01b0316331461107b5760405162461bcd60e51b815260206004820181905260248201527f4f776e61626c653a2063616c6c6572206973206e6f7420746865206f776e6572604482015260640161036c565b600080546001600160a01b038381166001600160a01b0319831681178455604051919092169283917f8be0079c531659141344cd1fd0a4f28419497f9722a3daafe3b4186f6b6457e09190a35050565b6002600154036117f75760405162461bcd60e51b815260206004820152601f60248201527f5265656e7472616e637947756172643a207265656e7472616e742063616c6c00604482015260640161036c565b6002600155565b6040518061014001604052806000815260200160006001600160a01b0316815260200160006001600160a01b031681526020016060815260200160608152602001600081526020016000151581526020016060815260200160608152602001606081525090565b6001600160a01b03811681146116f857600080fd5b803561188581611865565b919050565b6000806040838503121561189d57600080fd5b82356118a881611865565b946020939093013593505050565b6000602082840312156118c857600080fd5b5035919050565b60005b838110156118ea5781810151838201526020016118d2565b50506000910152565b6000815180845261190b8160208601602086016118cf565b601f01601f19169290920160200192915050565b60208152815160208201526000602083015161194660408401826001600160a01b03169052565b5060408301516001600160a01b03811660608401525060608301516101408060808501526119786101608501836118f3565b91506080850151601f19808685030160a087015261199684836118f3565b935060a087015160c087015260c087015191506119b760e087018315159052565b60e087015191506101008187860301818801526119d485846118f3565b9450808801519250506101208187860301818801526119f385846118f3565b908801518782039092018488015293509050611a0f83826118f3565b9695505050505050565b634e487b7160e01b600052604160045260246000fd5b604051610140810167ffffffffffffffff81118282101715611a5357611a53611a19565b60405290565b604051601f8201601f1916810167ffffffffffffffff81118282101715611a8257611a82611a19565b604052919050565b600067ffffffffffffffff821115611aa457611aa4611a19565b50601f01601f191660200190565b600082601f830112611ac357600080fd5b8135611ad6611ad182611a8a565b611a59565b818152846020838601011115611aeb57600080fd5b816020850160208301376000918101602001919091529392505050565b600080600060608486031215611b1d57600080fd5b8335611b2881611865565b9250602084013567ffffffffffffffff80821115611b4557600080fd5b611b5187838801611ab2565b93506040860135915080821115611b6757600080fd5b50611b7486828701611ab2565b9150509250925092565b80151581146116f857600080fd5b60008060408385031215611b9f57600080fd5b8235611baa81611865565b91506020830135611bba81611b7e565b809150509250929050565b600060208284031215611bd757600080fd5b813567ffffffffffffffff811115611bee57600080fd5b611bfa84828501611ab2565b949350505050565b8a81526001600160a01b038a811660208301528916604082015261014060608201819052600090611c358382018b6118f3565b90508281036080840152611c49818a6118f3565b90508760a084015286151560c084015282810360e0840152611c6b81876118f3565b9050828103610100840152611c8081866118f3565b9050828103610120840152611c9581856118f3565b9d9c50505050505050505050505050565b600060208284031215611cb857600080fd5b8135610d5781611865565b6020808252825182820181905260009190848201906040850190845b81811015611cfb57835183529284019291840191600101611cdf565b50909695505050505050565b60a081526000611d1a60a08301886118f3565b8281036020840152611d2c81886118f3565b95151560408401525050911515606083015260809091015292915050565b60008060008060008060c08789031215611d6357600080fd5b611d6c8761187a565b9550602087013567ffffffffffffffff80821115611d8957600080fd5b611d958a838b01611ab2565b96506040890135915080821115611dab57600080fd5b611db78a838b01611ab2565b95506060890135915080821115611dcd57600080fd5b611dd98a838b01611ab2565b94506080890135915080821115611def57600080fd5b611dfb8a838b01611ab2565b935060a0890135915080821115611e1157600080fd5b50611e1e89828a01611ab2565b9150509295509295509295565b60208082526026908201527f4e6f7420612072656769737465726564206f722061637469766520696e7374696040820152653a3aba34b7b760d11b606082015260800190565b600181811c90821680611e8557607f821691505b60208210810361094757634e487b7160e01b600052602260045260246000fd5b601f821115611eeb57600081815260208120601f850160051c81016020861015611ecc5750805b601f850160051c820191505b8181101561167a57828155600101611ed8565b505050565b815167ffffffffffffffff811115611f0a57611f0a611a19565b611f1e81611f188454611e71565b84611ea5565b602080601f831160018114611f535760008415611f3b5750858301515b600019600386901b1c1916600185901b17855561167a565b600085815260208120601f198616915b82811015611f8257888601518255948401946001909101908401611f63565b5085821015611fa05787850151600019600388901b60f8161c191681555b5050505050600190811b01905550565b602081526000610d5760208301846118f3565b60008251611fd58184602087016118cf565b9190910192915050565b805161188581611865565b600082601f830112611ffb57600080fd5b8151612009611ad182611a8a565b81815284602083860101111561201e57600080fd5b611bfa8260208301602087016118cf565b805161188581611b7e565b60006020828403121561204c57600080fd5b815167ffffffffffffffff8082111561206457600080fd5b90830190610140828603121561207957600080fd5b612081611a2f565b8251815261209160208401611fdf565b60208201526120a260408401611fdf565b60408201526060830151828111156120b957600080fd5b6120c587828601611fea565b6060830152506080830151828111156120dd57600080fd5b6120e987828601611fea565b60808301525060a083015160a082015261210560c0840161202f565b60c082015260e08301518281111561211c57600080fd5b61212887828601611fea565b60e083015250610100808401518381111561214257600080fd5b61214e88828701611fea565b828401525050610120808401518381111561216857600080fd5b61217488828701611fea565b91830191909152509594505050505056fea26469706673582212201422711afb469b5e167b2f9b8259d2cbce4d6c10d187f949e31eadda3c20faa564736f6c63430008130033",
  "linkReferences": {},
  "deployedLinkReferences": {}
}