{
  "_format": "hh-sol-artifact-1",
  "contractName": "UserManagement",
  "sourceName": "contracts/UserManagement.sol",
  "abi": [
    {
      "inputs": [],
      "stateMutability": "nonpayable",
      "type": "constructor"
    },
    {
      "anonymous": false,
      "inputs": [
        {
          "indexed": false,
          "internalType": "address",
          "name": "account",
          "type": "address"
        }
      ],
      "name": "Paused",
      "type": "event"
    },
    {
      "anonymous": false,
      "inputs": [
        {
          "indexed": true,
          "internalType": "bytes32",
          "name": "role",
          "type": "bytes32"
        },
        {
          "indexed": true,
          "internalType": "bytes32",
          "name": "previousAdminRole",
          "type": "bytes32"
        },
        {
          "indexed": true,
          "internalType": "bytes32",
          "name": "newAdminRole",
          "type": "bytes32"
        }
      ],
      "name": "RoleAdminChanged",
      "type": "event"
    },
    {
      "anonymous": false,
      "inputs": [
        {
          "indexed": true,
          "internalType": "bytes32",
          "name": "role",
          "type": "bytes32"
        },
        {
          "indexed": true,
          "internalType": "address",
          "name": "account",
          "type": "address"
        },
        {
          "indexed": true,
          "internalType": "address",
          "name": "sender",
          "type": "address"
        }
      ],
      "name": "RoleGranted",
      "type": "event"
    },
    {
      "anonymous": false,
      "inputs": [
        {
          "indexed": true,
          "internalType": "bytes32",
          "name": "role",
          "type": "bytes32"
        },
        {
          "indexed": true,
          "internalType": "address",
          "name": "account",
          "type": "address"
        },
        {
          "indexed": true,
          "internalType": "address",
          "name": "sender",
          "type": "address"
        }
      ],
      "name": "RoleRevoked",
      "type": "event"
    },
    {
      "anonymous": false,
      "inputs": [
        {
          "indexed": false,
          "internalType": "address",
          "name": "account",
          "type": "address"
        }
      ],
      "name": "Unpaused",
      "type": "event"
    },
    {
      "anonymous": false,
      "inputs": [
        {
          "indexed": true,
          "internalType": "address",
          "name": "user",
          "type": "address"
        }
      ],
      "name": "UserProfileUpdated",
      "type": "event"
    },
    {
      "anonymous": false,
      "inputs": [
        {
          "indexed": true,
          "internalType": "address",
          "name": "user",
          "type": "address"
        },
        {
          "indexed": true,
          "internalType": "bytes32",
          "name": "role",
          "type": "bytes32"
        },
        {
          "indexed": false,
          "internalType": "string",
          "name": "userType",
          "type": "string"
        }
      ],
      "name": "UserRegistered",
      "type": "event"
    },
    {
      "anonymous": false,
      "inputs": [
        {
          "indexed": true,
          "internalType": "address",
          "name": "user",
          "type": "address"
        },
        {
          "indexed": true,
          "internalType": "bytes32",
          "name": "oldRole",
          "type": "bytes32"
        },
        {
          "indexed": true,
          "internalType": "bytes32",
          "name": "newRole",
          "type": "bytes32"
        }
      ],
      "name": "UserRoleUpdated",
      "type": "event"
    },
    {
      "inputs": [],
      "name": "DEFAULT_ADMIN_ROLE",
      "outputs": [
        {
          "internalType": "bytes32",
          "name": "",
          "type": "bytes32"
        }
      ],
      "stateMutability": "view",
      "type": "function"
    },
    {
      "inputs": [],
      "name": "INSTITUTION_ROLE",
      "outputs": [
        {
          "internalType": "bytes32",
          "name": "",
          "type": "bytes32"
        }
      ],
      "stateMutability": "view",
      "type": "function"
    },
    {
      "inputs": [],
      "name": "STUDENT_ROLE",
      "outputs": [
        {
          "internalType": "bytes32",
          "name": "",
          "type": "bytes32"
        }
      ],
      "stateMutability": "view",
      "type": "function"
    },
    {
      "inputs": [],
      "name": "VERIFIER_ROLE",
      "outputs": [
        {
          "internalType": "bytes32",
          "name": "",
          "type": "bytes32"
        }
      ],
      "stateMutability": "view",
      "type": "function"
    },
    {
      "inputs": [
        {
          "internalType": "bytes32",
          "name": "role",
          "type": "bytes32"
        }
      ],
      "name": "getRoleAdmin",
      "outputs": [
        {
          "internalType": "bytes32",
          "name": "",
          "type": "bytes32"
        }
      ],
      "stateMutability": "view",
      "type": "function"
    },
    {
      "inputs": [
        {
          "internalType": "address",
          "name": "_user",
          "type": "address"
        }
      ],
      "name": "getUserProfile",
      "outputs": [
        {
          "components": [
            {
              "internalType": "string",
              "name": "name",
              "type": "string"
            },
            {
              "internalType": "string",
              "name": "email",
              "type": "string"
            },
            {
              "internalType": "string",
              "name": "profileType",
              "type": "string"
            },
            {
              "internalType": "bool",
              "name": "isActive",
              "type": "bool"
            },
            {
              "internalType": "uint256",
              "name": "registeredAt",
              "type": "uint256"
            },
            {
              "internalType": "string",
              "name": "additionalData",
              "type": "string"
            }
          ],
          "internalType": "struct UserManagement.UserProfile",
          "name": "",
          "type": "tuple"
        }
      ],
      "stateMutability": "view",
      "type": "function"
    },
    {
      "inputs": [
        {
          "internalType": "address",
          "name": "_user",
          "type": "address"
        }
      ],
      "name": "getUserRole",
      "outputs": [
        {
          "internalType": "bytes32",
          "name": "",
          "type": "bytes32"
        }
      ],
      "stateMutability": "view",
      "type": "function"
    },
    {
      "inputs": [
        {
          "internalType": "bytes32",
          "name": "role",
          "type": "bytes32"
        },
        {
          "internalType": "address",
          "name": "account",
          "type": "address"
        }
      ],
      "name": "grantRole",
      "outputs": [],
      "stateMutability": "nonpayable",
      "type": "function"
    },
    {
      "inputs": [
        {
          "internalType": "bytes32",
          "name": "role",
          "type": "bytes32"
        },
        {
          "internalType": "address",
          "name": "account",
          "type": "address"
        }
      ],
      "name": "hasRole",
      "outputs": [
        {
          "internalType": "bool",
          "name": "",
          "type": "bool"
        }
      ],
      "stateMutability": "view",
      "type": "function"
    },
    {
      "inputs": [
        {
          "internalType": "address",
          "name": "_user",
          "type": "address"
        }
      ],
      "name": "isUserActive",
      "outputs": [
        {
          "internalType": "bool",
          "name": "",
          "type": "bool"
        }
      ],
      "stateMutability": "view",
      "type": "function"
    },
    {
      "inputs": [],
      "name": "pause",
      "outputs": [],
      "stateMutability": "nonpayable",
      "type": "function"
    },
    {
      "inputs": [],
      "name": "paused",
      "outputs": [
        {
          "internalType": "bool",
          "name": "",
          "type": "bool"
        }
      ],
      "stateMutability": "view",
      "type": "function"
    },
    {
      "inputs": [
        {
          "internalType": "address",
          "name": "_user",
          "type": "address"
        },
        {
          "internalType": "bytes32",
          "name": "_role",
          "type": "bytes32"
        },
        {
          "internalType": "string",
          "name": "_name",
          "type": "string"
        },
        {
          "internalType": "string",
          "name": "_email",
          "type": "string"
        },
        {
          "internalType": "string",
          "name": "_profileType",
          "type": "string"
        },
        {
          "internalType": "string",
          "name": "_additionalData",
          "type": "string"
        }
      ],
      "name": "registerUser",
      "outputs": [],
      "stateMutability": "nonpayable",
      "type": "function"
    },
    {
      "inputs": [
        {
          "internalType": "address",
          "name": "",
          "type": "address"
        }
      ],
      "name": "registeredUsers",
      "outputs": [
        {
          "internalType": "bool",
          "name": "",
          "type": "bool"
        }
      ],
      "stateMutability": "view",
      "type": "function"
    },
    {
      "inputs": [
        {
          "internalType": "bytes32",
          "name": "role",
          "type": "bytes32"
        },
        {
          "internalType": "address",
          "name": "account",
          "type": "address"
        }
      ],
      "name": "renounceRole",
      "outputs": [],
      "stateMutability": "nonpayable",
      "type": "function"
    },
    {
      "inputs": [
        {
          "internalType": "bytes32",
          "name": "role",
          "type": "bytes32"
        },
        {
          "internalType": "address",
          "name": "account",
          "type": "address"
        }
      ],
      "name": "revokeRole",
      "outputs": [],
      "stateMutability": "nonpayable",
      "type": "function"
    },
    {
      "inputs": [
        {
          "internalType": "address",
          "name": "_user",
          "type": "address"
        },
        {
          "internalType": "bool",
          "name": "_isActive",
          "type": "bool"
        }
      ],
      "name": "setUserStatus",
      "outputs": [],
      "stateMutability": "nonpayable",
      "type": "function"
    },
    {
      "inputs": [
        {
          "internalType": "bytes4",
          "name": "interfaceId",
          "type": "bytes4"
        }
      ],
      "name": "supportsInterface",
      "outputs": [
        {
          "internalType": "bool",
          "name": "",
          "type": "bool"
        }
      ],
      "stateMutability": "view",
      "type": "function"
    },
    {
      "inputs": [],
      "name": "unpause",
      "outputs": [],
      "stateMutability": "nonpayable",
      "type": "function"
    },
    {
      "inputs": [
        {
          "internalType": "string",
          "name": "_name",
          "type": "string"
        },
        {
          "internalType": "string",
          "name": "_email",
          "type": "string"
        },
        {
          "internalType": "string",
          "name": "_additionalData",
          "type": "string"
        }
      ],
      "name": "updateProfile",
      "outputs": [],
      "stateMutability": "nonpayable",
      "type": "function"
    },
    {
      "inputs": [
        {
          "internalType": "address",
          "name": "_user",
          "type": "address"
        },
        {
          "internalType": "bytes32",
          "name": "_newRole",
          "type": "bytes32"
        }
      ],
      "name": "updateUserRole",
      "outputs": [],
      "stateMutability": "nonpayable",
      "type": "function"
    },
    {
      "inputs": [
        {
          "internalType": "address",
          "name": "_user",
          "type": "address"
        },
        {
          "internalType": "bytes32",
          "name": "_role",
          "type": "bytes32"
        }
      ],
      "name": "userHasRole",
      "outputs": [
        {
          "internalType": "bool",
          "name": "",
          "type": "bool"
        }
      ],
      "stateMutability": "view",
      "type": "function"
    },
    {
      "inputs": [
        {
          "internalType": "address",
          "name": "",
          "type": "address"
        }
      ],
      "name": "userProfiles",
      "outputs": [
        {
          "internalType": "string",
          "name": "name",
          "type": "string"
        },
        {
          "internalType": "string",
          "name": "email",
          "type": "string"
        },
        {
          "internalType": "string",
          "name": "profileType",
          "type": "string"
        },
        {
          "internalType": "bool",
          "name": "isActive",
          "type": "bool"
        },
        {
          "internalType": "uint256",
          "name": "registeredAt",
          "type": "uint256"
        },
        {
          "internalType": "string",
          "name": "additionalData",
          "type": "string"
        }
      ],
      "stateMutability": "view",
      "type": "function"
    }
  ],
  "bytecode": "0x608060405234801561001057600080fd5b506001805460ff1916905561002660003361002b565b6100ca565b6000828152602081815260408083206001600160a01b038516845290915290205460ff166100c6576000828152602081815260408083206001600160a01b03851684529091529020805460ff191660011790556100853390565b6001600160a01b0316816001600160a01b0316837f2f8788117e7eff1d82e926ec794901d17c78024a50270940304540a733656f0d60405160405180910390a45b5050565b611ba2806100d96000396000f3fe608060405234801561001057600080fd5b506004361061014d5760003560e01c80635c975abb116100c3578063a217fddf1161007c578063a217fddf146102dd578063a7054430146102e5578063d547741f146102f8578063e5112be01461030b578063e7705db61461031e578063f7be43fb1461033357600080fd5b80635c975abb14610271578063729cad811461027c5780638456cb591461028f57806391d1485414610297578063987ee156146102aa5780639ee20b15146102ca57600080fd5b8063248a9ca311610115578063248a9ca3146101e8578063278208511461020b5780632f2ff15d1461021e578063332d56d71461023157806336568abe146102565780633f4ba83a1461026957600080fd5b806301ffc9a7146101525780630e50cee51461017a5780631105a5eb1461019d5780631b929c21146101b257806321eceff7146101d5575b600080fd5b610165610160366004611459565b610348565b60405190151581526020015b60405180910390f35b61016561018836600461149f565b60036020526000908152604090205460ff1681565b6101b06101ab36600461155d565b61037f565b005b6101c7600080516020611b2d83398151915281565b604051908152602001610171565b6101b06101e33660046115e5565b610429565b6101c76101f6366004611621565b60009081526020819052604090206001015490565b6101c761021936600461149f565b6104a3565b6101b061022c36600461163a565b610543565b61024461023f36600461149f565b61056d565b604051610171969594939291906116b6565b6101b061026436600461163a565b6107c9565b6101b0610847565b60015460ff16610165565b61016561028a36600461171e565b61085d565b6101b0610870565b6101656102a536600461163a565b610883565b6102bd6102b836600461149f565b6108ac565b6040516101719190611748565b6101656102d836600461149f565b610bad565b6101c7600081565b6101b06102f336600461171e565b610bf2565b6101b061030636600461163a565b610dad565b6101b06103193660046117dc565b610dd2565b6101c7600080516020611b4d83398151915281565b6101c7600080516020611b0d83398151915281565b60006001600160e01b03198216637965db0b60e01b148061037957506301ffc9a760e01b6001600160e01b03198316145b92915050565b610387611041565b3360009081526003602052604090205460ff166103bf5760405162461bcd60e51b81526004016103b6906118a2565b60405180910390fd5b336000908152600260205260409020806103d98582611957565b50600181016103e88482611957565b50600581016103f78382611957565b5060405133907fa7dff163671e610b2bf8ca2e049a3f29bd4e483b11bed1545b16d733ff17780b90600090a250505050565b600061043481611089565b61043c611041565b6001600160a01b03831660009081526003602052604090205460ff166104745760405162461bcd60e51b81526004016103b6906118a2565b506001600160a01b03919091166000908152600260205260409020600301805460ff1916911515919091179055565b60006104bd600080516020611b2d83398151915283610883565b156104d75750600080516020611b2d833981519152919050565b6104ef600080516020611b4d83398151915283610883565b156105095750600080516020611b4d833981519152919050565b610521600080516020611b0d83398151915283610883565b1561053b5750600080516020611b0d833981519152919050565b506000919050565b60008281526020819052604090206001015461055e81611089565b6105688383611093565b505050565b600260205260009081526040902080548190610588906118cf565b80601f01602080910402602001604051908101604052809291908181526020018280546105b4906118cf565b80156106015780601f106105d657610100808354040283529160200191610601565b820191906000526020600020905b8154815290600101906020018083116105e457829003601f168201915b505050505090806001018054610616906118cf565b80601f0160208091040260200160405190810160405280929190818152602001828054610642906118cf565b801561068f5780601f106106645761010080835404028352916020019161068f565b820191906000526020600020905b81548152906001019060200180831161067257829003601f168201915b5050505050908060020180546106a4906118cf565b80601f01602080910402602001604051908101604052809291908181526020018280546106d0906118cf565b801561071d5780601f106106f25761010080835404028352916020019161071d565b820191906000526020600020905b81548152906001019060200180831161070057829003601f168201915b5050505060038301546004840154600585018054949560ff9093169491935090610746906118cf565b80601f0160208091040260200160405190810160405280929190818152602001828054610772906118cf565b80156107bf5780601f10610794576101008083540402835291602001916107bf565b820191906000526020600020905b8154815290600101906020018083116107a257829003601f168201915b5050505050905086565b6001600160a01b03811633146108395760405162461bcd60e51b815260206004820152602f60248201527f416363657373436f6e74726f6c3a2063616e206f6e6c792072656e6f756e636560448201526e103937b632b9903337b91039b2b63360891b60648201526084016103b6565b6108438282611117565b5050565b600061085281611089565b61085a61117c565b50565b60006108698284610883565b9392505050565b600061087b81611089565b61085a6111ce565b6000918252602082815260408084206001600160a01b0393909316845291905290205460ff1690565b6108e76040518060c0016040528060608152602001606081526020016060815260200160001515815260200160008152602001606081525090565b6001600160a01b03821660009081526003602052604090205460ff1661091f5760405162461bcd60e51b81526004016103b6906118a2565b6001600160a01b03821660009081526002602052604090819020815160c08101909252805482908290610951906118cf565b80601f016020809104026020016040519081016040528092919081815260200182805461097d906118cf565b80156109ca5780601f1061099f576101008083540402835291602001916109ca565b820191906000526020600020905b8154815290600101906020018083116109ad57829003601f168201915b505050505081526020016001820180546109e3906118cf565b80601f0160208091040260200160405190810160405280929190818152602001828054610a0f906118cf565b8015610a5c5780601f10610a3157610100808354040283529160200191610a5c565b820191906000526020600020905b815481529060010190602001808311610a3f57829003601f168201915b50505050508152602001600282018054610a75906118cf565b80601f0160208091040260200160405190810160405280929190818152602001828054610aa1906118cf565b8015610aee5780601f10610ac357610100808354040283529160200191610aee565b820191906000526020600020905b815481529060010190602001808311610ad157829003601f168201915b5050509183525050600382015460ff161515602082015260048201546040820152600582018054606090920191610b24906118cf565b80601f0160208091040260200160405190810160405280929190818152602001828054610b50906118cf565b8015610b9d5780601f10610b7257610100808354040283529160200191610b9d565b820191906000526020600020905b815481529060010190602001808311610b8057829003601f168201915b5050505050815250509050919050565b6001600160a01b03811660009081526003602052604081205460ff1680156103795750506001600160a01b031660009081526002602052604090206003015460ff1690565b6000610bfd81611089565b610c05611041565b6001600160a01b03831660009081526003602052604090205460ff16610c3d5760405162461bcd60e51b81526004016103b6906118a2565b600080516020611b2d833981519152821480610c665750600080516020611b4d83398151915282145b80610c7e5750600080516020611b0d83398151915282145b610cb95760405162461bcd60e51b815260206004820152600c60248201526b496e76616c696420726f6c6560a01b60448201526064016103b6565b6000610cd3600080516020611b2d83398151915285610883565b15610cf75750600080516020611b2d833981519152610cf28185611117565b610d65565b610d0f600080516020611b4d83398151915285610883565b15610d2e5750600080516020611b4d833981519152610cf28185611117565b610d46600080516020611b0d83398151915285610883565b15610d655750600080516020611b0d833981519152610d658185611117565b610d6f8385611093565b8281856001600160a01b03167f97a2d1853b7ea30029c67a415af67dfc429b95d3cc4755037b533870622c720160405160405180910390a450505050565b600082815260208190526040902060010154610dc881611089565b6105688383611117565b6000610ddd81611089565b610de5611041565b6001600160a01b038716610e325760405162461bcd60e51b8152602060048201526014602482015273496e76616c69642075736572206164647265737360601b60448201526064016103b6565b6001600160a01b03871660009081526003602052604090205460ff1615610e9b5760405162461bcd60e51b815260206004820152601760248201527f5573657220616c7265616479207265676973746572656400000000000000000060448201526064016103b6565b600080516020611b2d833981519152861480610ec45750600080516020611b4d83398151915286145b80610edc5750600080516020611b0d83398151915286145b610f175760405162461bcd60e51b815260206004820152600c60248201526b496e76616c696420726f6c6560a01b60448201526064016103b6565b610f218688611093565b6040805160c08101825286815260208082018790528183018690526001606083015242608083015260a082018590526001600160a01b038a16600090815260029091529190912081518190610f769082611957565b5060208201516001820190610f8b9082611957565b5060408201516002820190610fa09082611957565b50606082015160038201805460ff19169115159190911790556080820151600482015560a08201516005820190610fd79082611957565b5050506001600160a01b03871660008181526003602052604090819020805460ff19166001179055518791907ffd300ef55fba4d96bd88a72be560bcd1b8079e0d4b660174aaf3d387a2680d8a90611030908790611a17565b60405180910390a350505050505050565b60015460ff16156110875760405162461bcd60e51b815260206004820152601060248201526f14185d5cd8589b194e881c185d5cd95960821b60448201526064016103b6565b565b61085a8133611209565b61109d8282610883565b610843576000828152602081815260408083206001600160a01b03851684529091529020805460ff191660011790556110d33390565b6001600160a01b0316816001600160a01b0316837f2f8788117e7eff1d82e926ec794901d17c78024a50270940304540a733656f0d60405160405180910390a45050565b6111218282610883565b15610843576000828152602081815260408083206001600160a01b0385168085529252808320805460ff1916905551339285917ff6391f5c32d9c69d2a47ea670b442974b53935d1edc7fd64eb21e047a839171b9190a45050565b611184611262565b6001805460ff191690557f5db9ee0a495bf2e6ff9c91a7834c1ba4fdd244a5e8aa4e537bd38aeae4b073aa335b6040516001600160a01b03909116815260200160405180910390a1565b6111d6611041565b6001805460ff1916811790557f62e78cea01bee320cd4e420270b5ea74000d11b0c9f74754ebdbfc544b05a258336111b1565b6112138282610883565b61084357611220816112ab565b61122b8360206112bd565b60405160200161123c929190611a2a565b60408051601f198184030181529082905262461bcd60e51b82526103b691600401611a17565b60015460ff166110875760405162461bcd60e51b815260206004820152601460248201527314185d5cd8589b194e881b9bdd081c185d5cd95960621b60448201526064016103b6565b60606103796001600160a01b03831660145b606060006112cc836002611ab5565b6112d7906002611acc565b67ffffffffffffffff8111156112ef576112ef6114ba565b6040519080825280601f01601f191660200182016040528015611319576020820181803683370190505b509050600360fc1b8160008151811061133457611334611adf565b60200101906001600160f81b031916908160001a905350600f60fb1b8160018151811061136357611363611adf565b60200101906001600160f81b031916908160001a9053506000611387846002611ab5565b611392906001611acc565b90505b600181111561140a576f181899199a1a9b1b9c1cb0b131b232b360811b85600f16601081106113c6576113c6611adf565b1a60f81b8282815181106113dc576113dc611adf565b60200101906001600160f81b031916908160001a90535060049490941c9361140381611af5565b9050611395565b5083156108695760405162461bcd60e51b815260206004820181905260248201527f537472696e67733a20686578206c656e67746820696e73756666696369656e7460448201526064016103b6565b60006020828403121561146b57600080fd5b81356001600160e01b03198116811461086957600080fd5b80356001600160a01b038116811461149a57600080fd5b919050565b6000602082840312156114b157600080fd5b61086982611483565b634e487b7160e01b600052604160045260246000fd5b600082601f8301126114e157600080fd5b813567ffffffffffffffff808211156114fc576114fc6114ba565b604051601f8301601f19908116603f01168101908282118183101715611524576115246114ba565b8160405283815286602085880101111561153d57600080fd5b836020870160208301376000602085830101528094505050505092915050565b60008060006060848603121561157257600080fd5b833567ffffffffffffffff8082111561158a57600080fd5b611596878388016114d0565b945060208601359150808211156115ac57600080fd5b6115b8878388016114d0565b935060408601359150808211156115ce57600080fd5b506115db868287016114d0565b9150509250925092565b600080604083850312156115f857600080fd5b61160183611483565b91506020830135801515811461161657600080fd5b809150509250929050565b60006020828403121561163357600080fd5b5035919050565b6000806040838503121561164d57600080fd5b8235915061165d60208401611483565b90509250929050565b60005b83811015611681578181015183820152602001611669565b50506000910152565b600081518084526116a2816020860160208601611666565b601f01601f19169290920160200192915050565b60c0815260006116c960c083018961168a565b82810360208401526116db818961168a565b905082810360408401526116ef818861168a565b9050851515606084015284608084015282810360a0840152611711818561168a565b9998505050505050505050565b6000806040838503121561173157600080fd5b61173a83611483565b946020939093013593505050565b602081526000825160c0602084015261176460e084018261168a565b90506020840151601f1980858403016040860152611782838361168a565b9250604086015191508085840301606086015261179f838361168a565b9250606086015115156080860152608086015160a086015260a08601519150808584030160c0860152506117d3828261168a565b95945050505050565b60008060008060008060c087890312156117f557600080fd5b6117fe87611483565b955060208701359450604087013567ffffffffffffffff8082111561182257600080fd5b61182e8a838b016114d0565b9550606089013591508082111561184457600080fd5b6118508a838b016114d0565b9450608089013591508082111561186657600080fd5b6118728a838b016114d0565b935060a089013591508082111561188857600080fd5b5061189589828a016114d0565b9150509295509295509295565b602080825260139082015272155cd95c881b9bdd081c9959da5cdd195c9959606a1b604082015260600190565b600181811c908216806118e357607f821691505b60208210810361190357634e487b7160e01b600052602260045260246000fd5b50919050565b601f82111561056857600081815260208120601f850160051c810160208610156119305750805b601f850160051c820191505b8181101561194f5782815560010161193c565b505050505050565b815167ffffffffffffffff811115611971576119716114ba565b6119858161197f84546118cf565b84611909565b602080601f8311600181146119ba57600084156119a25750858301515b600019600386901b1c1916600185901b17855561194f565b600085815260208120601f198616915b828110156119e9578886015182559484019460019091019084016119ca565b5085821015611a075787850151600019600388901b60f8161c191681555b5050505050600190811b01905550565b602081526000610869602083018461168a565b7f416363657373436f6e74726f6c3a206163636f756e7420000000000000000000815260008351611a62816017850160208801611666565b7001034b99036b4b9b9b4b733903937b6329607d1b6017918401918201528351611a93816028840160208801611666565b01602801949350505050565b634e487b7160e01b600052601160045260246000fd5b808202811582820484141761037957610379611a9f565b8082018082111561037957610379611a9f565b634e487b7160e01b600052603260045260246000fd5b600081611b0457611b04611a9f565b50600019019056fe36a5c4aaacb6b388bbd448bf11096b7dafc5652bcc9046084fd0e95b1fb0b2cc01f18e249044142f95a61b39bad5f99f3c70699c83bb85a1ad87fe9e68bd85d10ce23c3e399818cfee81a7ab0880f714e53d7672b08df0fa62f2843416e1ea09a2646970667358221220bc09c242cd40a942525cb8efebacfa5e0518d7fea3d9ab532cb6fe36254dacc564736f6c63430008130033",
  "linkReferences": {},
  "deployedLinkReferences": {}
}